{"abi":[{"type":"function","name":"emitDelegation","inputs":[{"name":"delegator","type":"address","internalType":"address"},{"name":"delegate","type":"address","internalType":"address"},{"name":"contractAddress","type":"address","internalType":"address"},{"name":"expiry","type":"uint64","internalType":"uint64"}],"outputs":[],"stateMutability":"nonpayable"},{"type":"event","name":"DelegatedForUserDecryption","inputs":[{"name":"delegator","type":"address","indexed":true,"internalType":"address"},{"name":"delegate","type":"address","indexed":true,"internalType":"address"},{"name":"contractAddress","type":"address","indexed":false,"internalType":"address"},{"name":"delegationCounter","type":"uint64","indexed":false,"internalType":"uint64"},{"name":"oldExpirationDate","type":"uint64","indexed":false,"internalType":"uint64"},{"name":"newExpirationDate","type":"uint64","indexed":false,"internalType":"uint64"}],"anonymous":false}],"bytecode":{"object":"0x6080604052348015600e575f5ffd5b506103da8061001c5f395ff3fe608060405234801561000f575f5ffd5b5060043610610029575f3560e01c80633a60e1831461002d575b5f5ffd5b61004760048036038101906100429190610242565b610049565b005b5f84848460405160200161005f939291906102b5565b6040516020818303038152906040528051906020012090505f60015f8381526020019081526020015f205f9054906101000a900467ffffffffffffffff1690508260015f8481526020019081526020015f205f6101000a81548167ffffffffffffffff021916908367ffffffffffffffff16021790555060015f5f8282829054906101000a900467ffffffffffffffff166100fa9190610317565b92506101000a81548167ffffffffffffffff021916908367ffffffffffffffff1602179055508473ffffffffffffffffffffffffffffffffffffffff168673ffffffffffffffffffffffffffffffffffffffff167f527b025d7ff06689c1ab9d32dfd7881c964cce72ce8ac5b2fe1d3be8cfda5bfc865f5f9054906101000a900467ffffffffffffffff1685886040516101979493929190610361565b60405180910390a3505050505050565b5f5ffd5b5f73ffffffffffffffffffffffffffffffffffffffff82169050919050565b5f6101d4826101ab565b9050919050565b6101e4816101ca565b81146101ee575f5ffd5b50565b5f813590506101ff816101db565b92915050565b5f67ffffffffffffffff82169050919050565b61022181610205565b811461022b575f5ffd5b50565b5f8135905061023c81610218565b92915050565b5f5f5f5f6080858703121561025a576102596101a7565b5b5f610267878288016101f1565b9450506020610278878288016101f1565b9350506040610289878288016101f1565b925050606061029a8782880161022e565b91505092959194509250565b6102af816101ca565b82525050565b5f6060820190506102c85f8301866102a6565b6102d560208301856102a6565b6102e260408301846102a6565b949350505050565b7f4e487b71000000000000000000000000000000000000000000000000000000005f52601160045260245ffd5b5f61032182610205565b915061032c83610205565b9250828201905067ffffffffffffffff81111561034c5761034b6102ea565b5b92915050565b61035b81610205565b82525050565b5f6080820190506103745f8301876102a6565b6103816020830186610352565b61038e6040830185610352565b61039b6060830184610352565b9594505050505056fea26469706673582212208f8f1943e9ac791b406e2e05a6ffc03b753d708248c92f52ca4cb769769d85a364736f6c63430008200033","linkReferences":{}},"methodIdentifiers":{"emitDelegation(address,address,address,uint64)":"3a60e183"},"id":0}