{"abi":[{"type":"function","name":"confidentialBalanceOf","inputs":[{"name":"","type":"address","internalType":"address"}],"outputs":[{"name":"","type":"bytes32","internalType":"bytes32"}],"stateMutability":"pure"},{"type":"function","name":"decimals","inputs":[],"outputs":[{"name":"","type":"uint8","internalType":"uint8"}],"stateMutability":"pure"},{"type":"function","name":"emitDisclosure","inputs":[{"name":"encryptedAmount","type":"bytes32","internalType":"bytes32"},{"name":"amount","type":"uint64","internalType":"uint64"}],"outputs":[],"stateMutability":"nonpayable"},{"type":"function","name":"emitTransfer","inputs":[{"name":"from","type":"address","internalType":"address"},{"name":"to","type":"address","internalType":"address"},{"name":"amount","type":"bytes32","internalType":"bytes32"}],"outputs":[],"stateMutability":"nonpayable"},{"type":"function","name":"name","inputs":[],"outputs":[{"name":"","type":"string","internalType":"string"}],"stateMutability":"pure"},{"type":"function","name":"rate","inputs":[],"outputs":[{"name":"","type":"uint256","internalType":"uint256"}],"stateMutability":"pure"},{"type":"function","name":"symbol","inputs":[],"outputs":[{"name":"","type":"string","internalType":"string"}],"stateMutability":"pure"},{"type":"function","name":"underlying","inputs":[],"outputs":[{"name":"","type":"address","internalType":"address"}],"stateMutability":"pure"},{"type":"event","name":"AmountDisclosed","inputs":[{"name":"encryptedAmount","type":"bytes32","indexed":true,"internalType":"bytes32"},{"name":"amount","type":"uint64","indexed":false,"internalType":"uint64"}],"anonymous":false},{"type":"event","name":"ConfidentialTransfer","inputs":[{"name":"from","type":"address","indexed":true,"internalType":"address"},{"name":"to","type":"address","indexed":true,"internalType":"address"},{"name":"amount","type":"bytes32","indexed":true,"internalType":"bytes32"}],"anonymous":false},{"type":"event","name":"UnwrapFinalized","inputs":[{"name":"receiver","type":"address","indexed":true,"internalType":"address"},{"name":"unwrapRequestId","type":"bytes32","indexed":true,"internalType":"bytes32"},{"name":"encryptedAmount","type":"bytes32","indexed":false,"internalType":"bytes32"},{"name":"cleartextAmount","type":"uint64","indexed":false,"internalType":"uint64"}],"anonymous":false},{"type":"event","name":"UnwrapRequested","inputs":[{"name":"receiver","type":"address","indexed":true,"internalType":"address"},{"name":"unwrapRequestId","type":"bytes32","indexed":true,"internalType":"bytes32"},{"name":"amount","type":"bytes32","indexed":false,"internalType":"bytes32"}],"anonymous":false}],"bytecode":{"object":"0x6080604052348015600e575f5ffd5b506105f18061001c5f395ff3fe608060405234801561000f575f5ffd5b5060043610610086575f3560e01c8063344ff10111610059578063344ff101146101005780636f307dc31461013057806395d89b411461014e578063aabfb07e1461016c57610086565b806306fdde031461008a5780630a5a57e6146100a85780632c4e722e146100c4578063313ce567146100e2575b5f5ffd5b610092610188565b60405161009f9190610337565b60405180910390f35b6100c260048036038101906100bd91906103cb565b6101c5565b005b6100cc610201565b6040516100d99190610421565b60405180910390f35b6100ea610210565b6040516100f79190610455565b60405180910390f35b61011a600480360381019061011591906104c8565b610218565b6040516101279190610502565b60405180910390f35b610138610223565b604051610145919061052a565b60405180910390f35b61015661022a565b6040516101639190610337565b60405180910390f35b61018660048036038101906101819190610543565b610267565b005b60606040518060400160405280600b81526020017f4d6f636b2063546f6b656e000000000000000000000000000000000000000000815250905090565b817f83bbbc07896439e5d950a6cead04cbc676180af7a61cecf43f5296475057f571826040516101f591906105a2565b60405180910390a25050565b5f670de0b6b3a7640000905090565b5f6006905090565b5f5f5f1b9050919050565b5f5f905090565b60606040518060400160405280600381526020017f4d63540000000000000000000000000000000000000000000000000000000000815250905090565b808273ffffffffffffffffffffffffffffffffffffffff168473ffffffffffffffffffffffffffffffffffffffff167f67500e8d0ed826d2194f514dd0d8124f35648ab6e3fb5e6ed867134cffe661e960405160405180910390a4505050565b5f81519050919050565b5f82825260208201905092915050565b8281835e5f83830152505050565b5f601f19601f8301169050919050565b5f610309826102c7565b61031381856102d1565b93506103238185602086016102e1565b61032c816102ef565b840191505092915050565b5f6020820190508181035f83015261034f81846102ff565b905092915050565b5f5ffd5b5f819050919050565b61036d8161035b565b8114610377575f5ffd5b50565b5f8135905061038881610364565b92915050565b5f67ffffffffffffffff82169050919050565b6103aa8161038e565b81146103b4575f5ffd5b50565b5f813590506103c5816103a1565b92915050565b5f5f604083850312156103e1576103e0610357565b5b5f6103ee8582860161037a565b92505060206103ff858286016103b7565b9150509250929050565b5f819050919050565b61041b81610409565b82525050565b5f6020820190506104345f830184610412565b92915050565b5f60ff82169050919050565b61044f8161043a565b82525050565b5f6020820190506104685f830184610446565b92915050565b5f73ffffffffffffffffffffffffffffffffffffffff82169050919050565b5f6104978261046e565b9050919050565b6104a78161048d565b81146104b1575f5ffd5b50565b5f813590506104c28161049e565b92915050565b5f602082840312156104dd576104dc610357565b5b5f6104ea848285016104b4565b91505092915050565b6104fc8161035b565b82525050565b5f6020820190506105155f8301846104f3565b92915050565b6105248161048d565b82525050565b5f60208201905061053d5f83018461051b565b92915050565b5f5f5f6060848603121561055a57610559610357565b5b5f610567868287016104b4565b9350506020610578868287016104b4565b92505060406105898682870161037a565b9150509250925092565b61059c8161038e565b82525050565b5f6020820190506105b55f830184610593565b9291505056fea26469706673582212207c59be18e5ecd3e1281902e4eae64750ddeff2e3df01f349bae063e5d60d9d4e64736f6c63430008200033","linkReferences":{}},"methodIdentifiers":{"confidentialBalanceOf(address)":"344ff101","decimals()":"313ce567","emitDisclosure(bytes32,uint64)":"0a5a57e6","emitTransfer(address,address,bytes32)":"aabfb07e","name()":"06fdde03","rate()":"2c4e722e","symbol()":"95d89b41","underlying()":"6f307dc3"},"id":1}